:03000000020006F5
:03005F0002000399
:0300030002006296
:200062007421C0E0E4C0E07442C0E0740AC0E07480C0E0120130E58124FBF58174ADC0E0BE
:20008200E4C0E0744CC0E0740AC0E07480C0E0120130E58124FBF5817433C0E0740AC0E025
:2000A2007480C0E07459C0E0740AC0E07480C0E0120130E58124FAF5817401C0E0E4C0E0B5
:2000C2007403C0E0E4C0E07402C0E0E4C0E07402C0E0E4C0E0745DC0E0740AC0E07480C00C
:2000E200E0120130E58124F5F5819027101200F89027100200F8AE82AF83EE4F60071EBE72
:06010200FF011F80F52241
:200A33004A414E472053756E67204877616E00416765203A2025640A004865696768742085
:200A53003A2025640A0025730A004167653A202564204865696768743A20256420746D7037
:140A73004E616D653A2025642063686172203A2025640A0040
:06003500E478FFF6D8FD9F
:200013007900E94400601B7A00900A92780175A000E493F2A308B8000205A0D9F4DAF275F7
:02003300A0FF2C
:20003B007800E84400600A790175A000E4F309D8FC7800E84400600C7900900001E4F0A3C3
:04005B00D8FCD9FAFA
:20010800C0368581367E008E83120000D0362285821985831A85F01BE4F516F517F518857D
:20012800081C9001080201F6C036E581F53624FBFF8F1CE4F516F517F518E53624FBF886F1
:100148001908861A08861B9001081201F6D0362273
:20015800AF82C00CC00DC00E1201658007C00AC00B8F82221581158115810514E4B514029E
:20017800051522AF8274302FFF24C6500B74072FFFE50960034307208F82020158E582FFAD
:20019800C4540FF582C00712017BD007740F5FF58202017B858237AB0FAC10AD11AE12AACA
:2001B800137539208A07EF2FF538EE2354014538FAEB2BFBEC33FCED33FDEE33FEC3EA95E3
:2001D800374008EAC39537FA430301E53914FF8F3970D18B0F8C108D118E128A132285825A
:2001F8000A85830B85160C85170D85180EE4F514F515AD19AE1AAF1B8D828E838FF0120AC5
:2002180013FC74012DF519E43EF51A8F1BECFF70030209D7BF250280030209CF7E007D00AE
:200238008E1D8E1E7A007B008E1F7C008E20E4F528F5297521FF7522FF85192A851A2B8522
:200258001B2C852A82852B83852CF0120A13F52DA385822A85832B852A19852B1A852C1B84
:200278007425B52D08852D82120158808574D0252D4003020338E52D24C650030203387429
:20029800FFB52155B5225285283785293890000AC006C005C004C003C0021209F685822E75
:2002B80085832FD002D003D004D005D006852D30753100E530252EF530E531352FF531E531
:2002D8003024D0F528E53134FFF529E5284529600302025A7D0102025A85213785223890FA
:2002F800000AC006C005C004C003C0021209F6858230858331D002D003D004D005D00685DE
:200318002D2E752F00E52E2530F530E52F3531F531E53024D0F521E53134FFF52202025ABC
:20033800742EB52D1574FFB52105B52202800302025AE4F521F52202025A749F252D500ED2
:20035800E52D24854008532DDF75090180037509007420B52D03020404742BB52D03020397
:20037800FE742DB52D0280797442B52D0302040A7443B52D030204157444B52D0302066280
:200398007446B52D030206787448B52D0302025A7449B52D03020662744AB52D0302025A1A
:2003B800744CB52D028050744FB52D030206697450B52D030205AD7453B52D0280767454D2
:2003D800B52D0302025A7455B52D0302066E7458B52D03020673745AB52D0302025A020659
:2003F8007C7E0102025A751D0102025A751E0102025A7B0102025A751F0102025AEB600A87
:20041800E51C14F9891C8730800DE51C24FEF52E852E1CA92E8730853082C006C005C004A4
:20043800C003C002120158D002D003D004D005D00602069EE51C24FDF53085301CA9308772
:200458002A09872B09872C1919852A0F852B10852C11852A82852B83852CF0C006C005C021
:2004780004C003C0021209DE858230858331D002D003D004D005D00674FFB52109B522061F
:20049800853021853122EE704FC3E5309528E53195295044E528C39530F52EE5299531F56B
:2004B8002F852E2A852F2B152E74FFB52E02152FE52A452B601C758220C006C005C004C039
:2004D80003C002120158D002D003D004D005D00680CF852E28852F2985212E85222F850F6B
:2004F800828510838511F0120A13F52A852A25604FC3E4952E7480852FF063F08095F05049
:200518003F152E74FFB52E02152F852582C006C005C004C003C002120158D002D003D004C1
:20053800D005D006850F2A85102B85112C052AE4B52A02052B852A0F852B10852C11809E36
:20055800EE700302069EC3E5309528E5319529400302069EE528C39530F530E5299531F5A7
:200578003185302E85312F153074FFB530021531E52E452F7003020698758220C006C00549
:20059800C004C003C002120158D002D003D004D005D00680CCE51C24FDF52E852E1CA92E34
:2005B800872A09872B09872C1919852A0F852B10852C11851126748025265005752E4380D3
:2005D8001974A025265005752E50800E74C025265005752E498003752E58852E82C006C0BC
:2005F80005C004C003C00212015875823A120158758230120158758278120158D002D0037D
:20061800D004D005D0067449B52E0280217450B52E02801A851082C006C005C004C003C0D4
:2006380002120195D002D003D004D005D006850F82C006C005C004C003C002120195D00270
:20065800D003D004D005D006803C7A0175200A8035752008803075200A802B7520108026C3
:200678007C018022852D82C006C005C004C003C002120158D002D003D004D005D006800626
:20069800853028853129EC6068E51C24FCFC8C1C8C01873209873309873409873519191930
:2006B80085320F853310853411853512750F8775100A751180850F32851033851134740191
:2006D8002532F52AE43533F52B85342C852A0F852B10852C118532828533838534F0120AC2
:2006F80013FC8C32700302020A85328212015880C4E520700302020AEB603FE51C14F98905
:200718001C87048C3275330075340075350085320F853310853411853512EA60030207BB2C
:20073800850F3275330075340075350085320F8533108534118535128069E51F6025E51C49
:2007580024FCFC8C1C8C01873209873309873409873519191985320F8533108534118535CE
:20077800128040E51C24FEFC8C1C8C018703098704198B32ECF5333395E0F534F535853281
:200798000F853310853411853512EA7016850F32851033F534F53585320F8533108534112B
:2007B800853512EA602AE51230E723C3E4950FF532E49510F533E49511F534E49512F53525
:2007D80085320F85331085341185351280027A007C01793FE4F532F533751300852082C00A
:2007F80006C005C004C002C0011201ACD001D002D004D005D006EC700DE513C4F530E7FBC2
:200818004530F7198002A7130532E4B532020533ECB40100E433FCE50F45104511451270A9
:20083800B88927853223853324E52845297005752801F529ED7043EE7040852832852933D8
:20085800AB230B8B30753100C3E5309532E53195335021758220C006C005C004C00212011D
:2008780058D002D004D005D006153274FFB53202153380CC853228853329EA601D75822D35
:20089800C006C005C004120158D004D005D006152874FFB5280215298046E5234524604063
:2008B800E51D601D75822BC006C005C004120158D004D005D006152874FFB52802152980F9
:2008D8001FE51E601B758220C006C005C004120158D004D005D006152874FFB52802152946
:2008F800EE703C852832852933AA32AB33153274FFB532021533C3E5239AE5249B5041ED5A
:2009180060067A307B0080047A207B008A82C006C005C004120158D004D005D00680CAC349
:20093800E5239528E5249529500FE528C39523F530E5299524F531800DE4F530F5318006D8
:20095800853230853331A927852332852433AA32AD33153274FFB532021533EA4D602EECD1
:20097800B40100E433FC700A09E7C4540FFD8D1380078705740F5DF513851382C006C004CA
:20099800C00112017BD001D004D00680C1EE700302020AAD30AE318D038E041DBDFF011EEF
:2009B800EB4C700302020A758220C006C005120158D005D00680E08F8212015802020A8540
:0609D80014828515832244
:0B0A87003C4E4F20464C4F41543E00B7
:1809DE00AA82AB83120A136003A380F8C3E5829AF582E5839BF5832222
:1D09F600E5828537F0A4C582C0F08538F0A4D0F025F0C5838537F0A42583F5832236
:0D00060075813F120A2FE58260030200039E
:1C0A130020F71430F6148883A88220F507E6A88375830022E280F7E49322E022F2
:040A2F0075820022AA
:00000001FF
